{
  "contractName": "ShoppingVoucher",
  "abi": [
    {
      "inputs": [],
      "stateMutability": "nonpayable",
      "type": "constructor"
    },
    {
      "inputs": [
        {
          "internalType": "address",
          "name": "",
          "type": "address"
        }
      ],
      "name": "customers",
      "outputs": [
        {
          "internalType": "bool",
          "name": "",
          "type": "bool"
        }
      ],
      "stateMutability": "view",
      "type": "function",
      "constant": true
    },
    {
      "inputs": [],
      "name": "setAssignVoucherCode",
      "outputs": [],
      "stateMutability": "nonpayable",
      "type": "function"
    },
    {
      "inputs": [],
      "name": "getAssignVoucherCode",
      "outputs": [
        {
          "internalType": "string",
          "name": "",
          "type": "string"
        }
      ],
      "stateMutability": "view",
      "type": "function",
      "constant": true
    }
  ],
  "bytecode": "0x608060405234801561001057600080fd5b506040518060400160405280600c81526020017f353050455243454e544f464600000000000000000000000000000000000000008152506000908051906020019061005c929190610062565b506100ff565b828054600181600116156101000203166002900490600052602060002090601f016020900481019282601f106100a357805160ff19168380011785556100d1565b828001600101855582156100d1579182015b828111156100d05782518255916020019190600101906100b5565b5b5090506100de91906100e2565b5090565b5b808211156100fb5760008160009055506001016100e3565b5090565b6103fd8061010e6000396000f3fe608060405234801561001057600080fd5b50600436106100415760003560e01c8063336989ae14610046578063b7f6979b146100a0578063c5cd5165146100aa575b600080fd5b6100886004803603602081101561005c57600080fd5b81019080803573ffffffffffffffffffffffffffffffffffffffff16906020019092919050505061012d565b60405180821515815260200191505060405180910390f35b6100a861014d565b005b6100b2610266565b6040518080602001828103825283818151815260200191508051906020019080838360005b838110156100f25780820151818401526020810190506100d7565b50505050905090810190601f16801561011f5780820380516001836020036101000a031916815260200191505b509250505060405180910390f35b60016020528060005260406000206000915054906101000a900460ff1681565b600160003373ffffffffffffffffffffffffffffffffffffffff1673ffffffffffffffffffffffffffffffffffffffff16815260200190815260200160002060009054906101000a900460ff161561020d576040517f08c379a00000000000000000000000000000000000000000000000000000000081526004018080602001828103825260168152602001807f566f756368657220616c7265616479204973737565640000000000000000000081525060200191505060405180910390fd5b60018060003373ffffffffffffffffffffffffffffffffffffffff1673ffffffffffffffffffffffffffffffffffffffff16815260200190815260200160002060006101000a81548160ff021916908315150217905550565b6060600160003373ffffffffffffffffffffffffffffffffffffffff1673ffffffffffffffffffffffffffffffffffffffff16815260200190815260200160002060009054906101000a900460ff16610327576040517f08c379a00000000000000000000000000000000000000000000000000000000081526004018080602001828103825260148152602001807f566f7563686572206e6f742061737369676e656400000000000000000000000081525060200191505060405180910390fd5b60008054600181600116156101000203166002900480601f0160208091040260200160405190810160405280929190818152602001828054600181600116156101000203166002900480156103bd5780601f10610392576101008083540402835291602001916103bd565b820191906000526020600020905b8154815290600101906020018083116103a057829003601f168201915b505050505090509056fea26469706673582212202051b40c1a8c178f84490051b0bcae8df76f964b271d28c30e9b83ecde899a3c64736f6c634300060c0033",
  "immutableReferences": {},
  "source": "pragma solidity ^0.6.0;\n\ncontract ShoppingVoucher {\n    \n    string voucherCode;\n\n    //  event Generate(address _customer, string _voucherCode);\n\n    mapping(address => bool) public customers;\n\n    constructor() public {\n       voucherCode = \"50PERCENTOFF\";\n    }\n\n    modifier onlyWhenUnused {\n       require(!customers[msg.sender], \"Voucher already Issued\");\n       _;\n    }\n\n   modifier onlyWhenAssigned {\n       require(customers[msg.sender], \"Voucher not assigned\");\n       _;\n    }\n\n   //  modifier freebie { \n   //     require(msg.value == 0 ether, \"This Voucher is Free Do not Pay!\");\n   //     _;\n   //  }\n\n    function setAssignVoucherCode() public onlyWhenUnused {\n    customers[msg.sender] = true;\n   }\n\n   function getAssignVoucherCode() public view onlyWhenAssigned returns (string memory)  {\n     return voucherCode;\n   }\n   //  receive() external payable onlyWhenUnused freebie {\n   //     voucherStatus = Statuses.Issued;\n   //     customer.transfer(msg.value);\n   //     emit Generate(msg.sender, voucherCode);\n   //  }\n}",
  "sourcePath": "/Users/khokhaa1/Documents/git/first-blockchain-dapp/contracts/ShoppingVoucher.sol",
  "compiler": {
    "name": "solc",
    "version": "0.6.12+commit.27d51765.Emscripten.clang"
  },
  "schemaVersion": "3.4.4",
  "updatedAt": "2022-05-03T15:51:30.258Z",
  "networkType": "ethereum",
  "devdoc": {
    "kind": "dev",
    "methods": {},
    "version": 1
  },
  "userdoc": {
    "kind": "user",
    "methods": {},
    "version": 1
  }
}